:100000000C9472000C9493000C9493000C94930045
:100010000C9493000C9493000C9493000C94930014
:100020000C9493000C9493000C9493000C94930004
:100030000C9493000C9493000C9493000C949300F4
:100040000C9493000C9493000C9493000C949300E4
:100050000C9493000C9493000C9493000C949300D4
:100060000C9493000C9493000C9493000C949300C4
:100070000C9493000C9493000C9493000C949300B4
:100080000C945B020C9493000C9493000C949300DA
:100090000C9493000C9493000C9493000C94930094
:1000A0000C9493000C9493000C9493000C94930084
:1000B0000C9493000C9493000C9493000C94930074
:1000C0000C9493000C9493000C9493000C94930064
:1000D0000C9493000C9493000C9493000C94930054
:1000E0000C94930011241FBECFEFD1E2DEBFCDBF31
:1000F00000E00CBF12E0A0E0B2E0E0ECF5E000E0D0
:100100000BBF02C007900D92A230B107D9F712E0E1
:10011000A2E0B2E001C01D92A031B107E1F70E9458
:10012000A4020C94DE020C940000E1EDF0E080816A
:1001300088608083E2EDF0E08081866080831092A9
:10014000D50089E18093D4000895E9ECF0E0808146
:1001500080618083EAECF0E0808186608083109289
:10016000CD008DE38093CC000895E1E9F0E080813B
:1001700088608083A1E7B0E08C9182608C938FEFE0
:1001800099EF90939900809398008081816080839B
:10019000089511B880E38DB90895EBE7F0E0808110
:1001A0008083ECE7F0E080818064808380818062DE
:1001B0008083EAE7F0E080818760808380818068C7
:1001C00080838081806480830895749A2FB7F89427
:1001D0008091080290910902909307028093060291
:1001E00081E0809300022FBF8091C80087FD04C08A
:1001F000809100028111F8CF7498809100028823C9
:1002000019F08091CE00089580E00895EF92FF925A
:100210000F931F93CF93DF93FC0126818EB18072E1
:100220008EB930E0DF01A20FB31F8C918130D1F580
:100230008EB190E289278EB9C9010596C6E0D0E05B
:10024000BE010E94B6028C010E0F1F1FC90102964B
:10025000BE010E94B6027C01EE0EFF1EC90101968E
:10026000BE010E94B6028E0F9F1FD7014C91DC0188
:100270008C91480FC9010396BE010E94B6028E0FF1
:100280009F1FDC018C91480FC9010496BE010E949A
:10029000B6028E0F9F1FFC018081480F81E0D801BC
:1002A0009C91941380E0DF91CF911F910F91FF906B
:1002B000EF9008950F931F93CF93DF93EC010E946B
:1002C000E500813021F0809100028111F8CF80910A
:1002D00000028823E9F081E0888300E010E010C08C
:1002E0000E94E500FE01E00FF11F81830F5F1F4FA9
:1002F0000530110529F480910002811106C008C063
:10030000809100028111ECCFF6CF86E08F831E82B0
:10031000DF91CF911F910F9108950F931F93CF936A
:10032000DF93EC018F81863080F00E8110E00E9417
:10033000E500FE01E00FF11F80838E8190E00196C1
:1003400066E070E00E94B6028E83DF91CF911F912C
:100350000F9108950F931F93CF93DF93FC010091AA
:10036000020210910302C681D0E0CE01029626E07F
:1003700030E0B9010E94B6028E0F9F1FDC018C9104
:10038000080F111D1093030200930202CE01019683
:10039000B9010E94B6028E0F9F1FDC018C918093E1
:1003A0000C02CE010496B9010E94B6028E0F9F1F67
:1003B000FC01808180930D02DF91CF911F910F91FD
:1003C00008950F931F93CF93DF93CDB7DEB7289790
:1003D0000FB6F894DEBF0FBECDBF8E010F5F1F4F6B
:1003E000C8010E945A01809100028823B1F0C8011F
:1003F0000E940601882311F0C8010DC0C8010E94A7
:100400008D01C8010E940601811104C08091000283
:100410008111F4CFC8010E94AA0128960FB6F89462
:10042000DEBF0FBECDBFDF91CF911F910F91089519
:100430009091D00095FFFCCF8093D6000895CF9384
:10044000DF9381E00E941802C0E0D0E0FE01E65F89
:10045000FD4F80810E9418022196C630D105B1F768
:1004600020E030E080E0F901E65FFD4F9081890FE8
:100470002F5F3F4F26303105B1F7DF91CF910C94BC
:1004800018028091790080930F02089520B180B105
:1004900090B130B140B12470220F220F8870880FC4
:1004A000880F880F822B3170832B9270990F982BB5
:1004B00090930E0208951F920F920FB60F9211247F
:1004C0002F933F938F939F938091080290910902FD
:1004D00001969093090280930802809108029091FE
:1004E00009022091060230910702821B930B0597A7
:1004F00010F0109200028091040290910502019682
:1005000090930502809304028E379105A0F08091AC
:1005100002029091030290930A028091020290914C
:10052000030280930B0210920302109202021092B7
:100530000502109204029F918F913F912F910F908D
:100540000FBE0F901F9018950E9495000E94A50065
:100550000E94B5000E94C90078940E94E1010E94A7
:1005600041020E9446020E941F02F7CF97FB072E0E
:1005700016F4009407D077FD09D00E94CA0207FC48
:1005800005D03EF4909581959F4F089570956195A3
:100590007F4F0895AA1BBB1B51E107C0AA1FBB1FB9
:1005A000A617B70710F0A61BB70B881F991F5A95FF
:1005B000A9F780959095BC01CD010895F894FFCFDF
:0205C000010038
:00000001FF
