:100000000C943A000C9457000C9457000C94570031
:100010000C9457000C9457000C9457000C94570004
:100020000C9457000C9457000C9457000C945700F4
:100030000C9457000C9457000C9457000C943D01FD
:100040000C9457000C9457000C9457000C945700D4
:100050000C9457000C9457000C9457000C945700C4
:100060000C9457000C9457000C9457000C945700B4
:100070000C94570011241FBECFEFD4E0DEBFCDBFDC
:1000800011E0A0E0B1E0E4EDF5E002C005900D92D2
:10009000A830B107D9F711E0A8E0B1E001C01D9286
:1000A000A331B107E1F70E94DA020C94E8020C9444
:1000B00000002298239A2098219880E48CBD08950E
:1000C000E9ECF0E0808180618083EAECF0E08081FF
:1000D000866080831092CD008DE38093CC000895DC
:1000E000E1E8F0E0808188608083AFE6B0E08C9149
:1000F00082608C938FE79EE39093890080938800C1
:1001000080818160808308950F931F93CF93DF9345
:10011000CDB7DEB729970FB6F894DEBF0FBECDBFBF
:100120000E94840284E40E94AF010E944E022FEFDD
:100130008FE097E2215080409040E1F700C000003E
:100140008E01065F1F4F0E9484028EEB0E94AF015A
:1001500069E0CE0101960E94BC020E949001FE015E
:10016000319680E09191892798E02CE8869508F4F3
:1001700082279A95D9F7E017F107A1F78111E3CF0C
:100180008981809306018A818093070129960FB6A1
:10019000F894DEBF0FBECDBFDF91CF911F910F91BD
:1001A0000895CF93DF9300D000D000D0CDB7DEB755
:1001B000FE01319686E0DF011D928A95E9F76E2FE8
:1001C0005F2F19C020910801309109018091C8006A
:1001D00087FFFCCF8091080190910901821B930B4E
:1001E000069710F0411107C08091CE0081934F5FB8
:1001F000463041F704C0E62FF52F40E0E3CF8A8177
:10020000809303018B81809302018D81809304018F
:1002100026960FB6F894DEBF0FBECDBFDF91CF910B
:100220000895809108019091090120910001309179
:100230000101821B930B80369A4E50F00E9484007D
:100240008091080190910901909301018093000130
:10025000089508951EBC80E090E00DB407FEFDCF28
:10026000FC01EE5FFE4F20812EBD01968630910588
:10027000A1F70DB407FEFDCF08951F920F920FB6A0
:100280000F9211248F939F938091080190910901FF
:10029000019690930901809308019F918F910F908F
:1002A0000FBE0F901F9018958FB7F894569A5E98CE
:1002B000E7E6F1E03197F1F700C000005E9AF0EA5E
:1002C000FA95F1F78FBF0895811102C00C94540183
:1002D0008FB7F894569A5E9895E39A95F1F70000D7
:1002E0005E9AE7ECF0E03197F1F700C000008FBFB5
:1002F00008959FB7F894569A5E982AE02A95F1F7E8
:1003000000C056988AE38A95F1F700C089B12AEFB8
:100310002A95F1F700C09FBF86FB882780F90895D2
:100320009FB7F894569A5E98EFECF7E03197F1F7A3
:1003300000C000005698E7E1F1E03197F1F700C006
:10034000000089B1EFE8F6E03197F1F700C0000056
:100350009FBF86FB882780F991E089270895CF9376
:10036000DF93D82FC8E08D2F81700E946401D6954D
:10037000C150C9F7DF91CF910895BF92CF92DF921C
:10038000EF92FF920F931F93CF93DF93EC018B01BA
:100390000E94900180EF0E94AF01C12CD12CEE246D
:1003A000E394F12C0E947901B82EBB0C0E947901D4
:1003B0008B0DED2DE695E695E6959D2D9770823097
:1003C00091F49E012E0F311DF901970102C0220FF9
:1003D000331F9A95E2F7C9019081980F908381E0CD
:1003E0000E9464012FC0813009F42AC0811133C0FA
:1003F000C11026C00115110519F1F0E0D801AE0FAA
:10040000BF1F2C9130E0092E02C0359527950A9424
:10041000E2F720FD10C0EC0FFD1F970102C0220F74
:10042000331F9A95E2F7C9019081980F908381E07C
:100430000E94640102C00E945401CC24C39402C0F3
:100440000E945401D39430E4D312ACCF81E0CC208D
:1004500019F080E001C082E0DF91CF911F910F91F0
:10046000FF90EF90DF90CF90BF9008951F93CF93B0
:10047000DF93C0E0D0E010E00E947901282F0C2E1D
:1004800001C0220F0A94EAF7120F2196C830D10555
:1004900099F7812FDF91CF911F910895569A5E9A17
:1004A0000895EF92FF920F931F93CF93DF931F92C4
:1004B000CDB7DEB77C010E94900185E50E94AF01B7
:1004C00020E001E010E0322F369536953695822FE8
:1004D0008770A80102C0440F551F8A95E2F7CA0130
:1004E000F701E30FF11D9081892329830E946401A4
:1004F00029812F5F203439F70F90DF91CF911F9121
:100500000F91FF90EF9008950E9490018CEC0C9455
:10051000AF0160E070E08AE091E00E94BD018130AF
:1005200021F48093120180E00895823011F481E07B
:10053000089582E008958AE091E00895EF92FF9295
:100540001F93CF93DF931F92CDB7DEB7182FE82EFE
:10055000F92E07C0F70181917F0169830E94AF01E5
:1005600069818E2D811B8617A8F30F90DF91CF91A3
:100570001F91FF90EF900895EF92FF921F93CF93FA
:10058000DF931F92CDB7DEB7182FE82EF92E07C0E4
:1005900069830E943602F70181937F0169818E2D64
:1005A000811B8617A8F30F90DF91CF911F91FF90C9
:1005B000EF9008950E9459000E9460000E94700010
:1005C00078940E94D1000E9411010E942A01F9CF63
:0405D000F894FFCFCD
:0805D400A015AAABACADAEAF5F
:00000001FF
