:100000000C943A000C9444000C9444000C9444006A
:100010000C9444000C9444000C9444000C94440050
:100020000C9444000C9444000C9444000C94440040
:100030000C9444000C9444000C9444000C94440030
:100040000C9444000C9444000C9444000C94440020
:100050000C9444000C9444000C9444000C94440010
:100060000C9444000C9444000C9444000C94440000
:100070000C94440011241FBECFEFD4E0DEBFCDBFEF
:100080000E945D000C949C000C940000E9ECF0E0F0
:10009000808188618083EAECF0E0808186608083E3
:1000A0001092CD008DE38093CC0008959091C8000C
:1000B00095FFFCCF8093CE0008950E94460081E01A
:1000C00084B981E00E9456008FE39FE10197F1F728
:1000D00000C0000086E50E9456008FE99FE001976E
:1000E000F1F700C0000085E00E9456008FE99FE014
:1000F0000197F1F700C0000080E00E9456008FE9F0
:100100009FE00197F1F700C0000087E70E945600CA
:100110008FE99FE00197F1F700C0000082ED0E9497
:1001200056008FEF9CE70197F1F700C0000085B102
:0C01300091E0892785B9C5CFF894FFCF76
:00000001FF
