:100000000C943A000C9457000C9457000C94570031
:100010000C9457000C9457000C9457000C94570004
:100020000C9457000C9457000C9457000C945700F4
:100030000C9457000C9457000C9457000C945700E4
:100040000C9457000C9457000C9457000C945700D4
:100050000C9457000C9457000C9431010C945700E9
:100060000C9457000C9457000C9457000C945700B4
:100070000C94570011241FBECFEFD4E0DEBFCDBFDC
:1000800011E0A0E0B1E0ECE3F6E002C005900D92D3
:10009000AC30B107D9F711E0ACE0B1E001C01D927E
:1000A000A931B107E1F70E9400030C941C030C94E2
:1000B00000002298239A2098219880EC8CBD089506
:1000C000E9ECF0E0808180618083EAECF0E08081FF
:1000D000866080831092CD008DE38093CC000895DC
:1000E00080910C018111FCCF3FB7F89480910E01F3
:1000F00021E0822780930E0180910E01822790E0FB
:1001000066E070E00E940A0380509F4FFC018081EE
:100110008EBD20930D013FBF08950F931F93CF9382
:10012000DF93CDB7DEB729970FB6F894DEBF0FBEC9
:10013000CDBF0E94AA0284E40E94D5010E947402ED
:100140002FEF8FE097E2215080409040E1F700C010
:1001500000008E01065F1F4F0E94AA028EEB0E94D4
:10016000D50169E0CE0101960E94E2020E94B6012B
:10017000FE01319680E09191892798E02CE88695E0
:1001800008F482279A95D9F7E017F107A1F78111B2
:10019000E3CF80910E01498190E066E070E00E941B
:1001A0000A0380509F4FFC01448380910E012A81F5
:1001B00090E066E070E00E940A0380509F4FFC01CF
:1001C000258380910E0131E0832790E066E070E0A6
:1001D0000E940A03FC01E050FF4F448380910E010E
:1001E000832790E066E070E00E940A0380509F4FF2
:1001F000FC01258329960FB6F894DEBF0FBECDBF54
:10020000DF91CF911F910F91089580910E01209160
:100210000F0190E066E070E00E940A0380509F4F5B
:10022000FC0123832F5F20930F01FFEF20E782E083
:10023000F15020408040E1F700C000008091C800EC
:1002400087FFFCCF2091CE0080910E0190E066E008
:1002500070E00E940A0380509F4FFC0122830C949F
:1002600070001F920F920FB60F9211242F933F939D
:100270005F936F937F938F939F93EF93FF9321E00F
:1002800020930C0180910D01863090F080910E0139
:10029000822790E066E070E00E940A03FC01E050D3
:1002A000FF4F80818EBD20930D0110920C0114C070
:1002B00080910E0130910D01822790E066E070E0A0
:1002C0000E940A03830F911D80509F4FFC01808183
:1002D0008EBD3F5F30930D01FF91EF919F918F9104
:1002E0007F916F915F913F912F910F900FBE0F9073
:1002F0001F9018958FB7F894569A5E98E7E6F1E04C
:100300003197F1F700C000005E9AF0EAFA95F1F734
:100310008FBF0895811102C00C947A018FB7F894B1
:10032000569A5E9895E39A95F1F700005E9AE7EC8D
:10033000F0E03197F1F700C000008FBF08959FB73C
:10034000F894569A5E982AE02A95F1F700C05698DC
:100350008AE38A95F1F700C089B12AEF2A95F1F76F
:1003600000C09FBF86FB882780F908959FB7F89447
:10037000569A5E98EFECF7E03197F1F700C0000075
:100380005698E7E1F1E03197F1F700C0000089B13C
:10039000EFE8F6E03197F1F700C000009FBF86FB61
:1003A000882780F991E089270895CF93DF93D82F8C
:1003B000C8E08D2F81700E948A01D695C150C9F77F
:1003C000DF91CF910895BF92CF92DF92EF92FF928B
:1003D0000F931F93CF93DF93EC018B010E94B60123
:1003E00080EF0E94D501C12CD12CEE24E394F12C96
:1003F0000E949F01B82EBB0C0E949F018B0DED2D1A
:10040000E695E695E6959D2D9770823091F49E01D4
:100410002E0F311DF901970102C0220F331F9A954B
:10042000E2F7C9019081980F908381E00E948A01D0
:100430002FC0813009F42AC0811133C0C11026C0F9
:100440000115110519F1F0E0D801AE0FBF1F2C9175
:1004500030E0092E02C0359527950A94E2F720FD79
:1004600010C0EC0FFD1F970102C0220F331F9A9599
:10047000E2F7C9019081980F908381E00E948A0180
:1004800002C00E947A01CC24C39402C00E947A0167
:10049000D39430E4D312ACCF81E0CC2019F080E0CB
:1004A00001C082E0DF91CF911F910F91FF90EF90FB
:1004B000DF90CF90BF9008951F93CF93DF93C0E05C
:1004C000D0E010E00E949F01282F0C2E01C0220FC7
:1004D0000A94EAF7120F2196C830D10599F7812FB7
:1004E000DF91CF911F910895569A5E9A0895EF92E9
:1004F000FF920F931F93CF93DF931F92CDB7DEB779
:100500007C010E94B60185E50E94D50120E001E052
:1005100010E0322F369536953695822F8770A801D8
:1005200002C0440F551F8A95E2F7CA01F701E30F95
:10053000F11D9081892329830E948A0129812F5FDF
:10054000203439F70F90DF91CF911F910F91FF90D9
:10055000EF9008950E94B6018CEC0C94D50160E0F8
:1005600070E080E191E00E94E301813021F480930A
:10057000180180E00895823011F481E0089582E04E
:10058000089580E191E00895EF92FF921F93CF9339
:10059000DF931F92CDB7DEB7182FE82EF92E07C0D4
:1005A000F70181917F0169830E94D50169818E2DB8
:1005B000811B8617A8F30F90DF91CF911F91FF90B9
:1005C000EF900895EF92FF921F93CF93DF931F92C6
:1005D000CDB7DEB7182FE82EF92E07C069830E9429
:1005E0005C02F70181937F0169818E2D811B861743
:1005F000A8F30F90DF91CF911F91FF90EF90089596
:100600000E9459000E9460000E948D0078940E9410
:100610000501FDCF5527002480FF02C0060E571F9D
:10062000660F771F6115710521F0969587950097E4
:0C06300099F7952F802D0895F894FFCFC6
:0C063C0001020304050611121314151628
:00000001FF
